:040000006CEF11F0A0
:1010000000000000000000000000000000000000E0
:1010100000000000000000000000000000000000D0
:1010200000000000000000000000000000000000C0
:101030000000C0010050726573737572653D2564D0
:10104000200D0A0056616C75653D25642008200D51
:10105000200A0074656D703D256420430D0A000070
:101060000450800B0D6E045004240F6E03AE3BEF52
:1010700008F03DEF08F03EEF08F00F800F50D8B4B5
:1010800044EF08F046EF08F05BEF08F00F28D8A413
:101090004CEF08F04EEF08F056EF08F0000E016E2E
:1010A000000E026E000E036E000E046E038E000E24
:1010B000046E63EF08F0000E016E000E026E000E6B
:1010C000036E000E046E0850800B0E6E0D500E184D
:1010D000D8B46DEF08F06FEF08F070EF08F00D8CEA
:1010E000085008240E6E07AE78EF08F07AEF08F08B
:1010F0007BEF08F00E800E50D8B481EF08F083EF3C
:1011000008F098EF08F00E28D8A489EF08F08BEFCC
:1011100008F093EF08F0000E056E000E066E000E4C
:10112000076E000E086E078E000E086EA0EF08F026
:10113000000E056E000E066E000E076E000E086EA5
:101140000F500E5CD8B0A7EF08F0A9EF08F0D0EF71
:1011500008F00DACAEEF08F0B0EF08F0B2EF08F019
:10116000800E0D1A0FC010F00EC00FF010C00EF060
:1011700001C010F005C001F010C005F002C010F071
:1011800006C002F010C006F003C010F007C003F064
:1011900010C007F004C010F008C004F010C008F040
:1011A000000E106E0F500EC009F00A6A095E000EA4
:1011B0000A5A0ABEE5EF08F00A5009E11A0E095C66
:1011C000D8A0E5EF08F0E7EF08F01EEF09F00150B6
:1011D000021003100410D8A4F0EF08F0F3EF08F0A9
:1011E000010EF4EF08F0000E106E000E016E000EFE
:1011F000026E000E036E000E046E0EC00FF027EF9D
:1012000009F010A006EF09F008EF09F00EEF09F061
:10121000D89010300109106E10EF09F0D8901032FC
:1012200001A015EF09F017EF09F018EF09F0108E83
:10123000043404320332023201320F2A0E500F5CA2
:10124000D8A025EF09F027EF09F001EF09F00DBC58
:101250002CEF09F02EEF09F06EEF09F00F50D8A433
:1012600034EF09F036EF09F040EF09F0000E016E9F
:10127000000E026E000E036E000E046E8FEF0AF079
:10128000055001260650022207500322085004226E
:1012900004A04DEF09F04FEF09F0FBEF09F010A0AB
:1012A00054EF09F056EF09F05CEF09F0D8901030D8
:1012B0000109106E5EEF09F0D890103201A063EFC3
:1012C00009F065EF09F066EF09F0108E043404327E
:1012D0000332023201320F2AFBEF09F00550015CA4
:1012E00006500258075003580450800A096E0850EF
:1012F000800A0958D8B07FEF09F081EF09F0ACEF10
:1013000009F00150055C096E025006580A6E035040
:1013100007580B6E045008580C6EFF0E0924016E1E
:10132000FF0E0A20026EFF0E0B20036EFF0E0C2034
:10133000046E800E0D1A106C1050D8A4A2EF09F0A4
:10134000A4EF09F0B4EF09F0010E0126000E02220D
:1013500003220422B4EF09F00550015E0650025A40
:101360000750035A0850045A015002100310041089
:10137000D8A4BDEF09F0BFEF09F0F4EF09F0105069
:10138000D8A4C5EF09F0C7EF09F0F4EF09F0000E9B
:10139000016E000E026E000E036E000E046E8FEFE3
:1013A0000AF0D890013602360336043610AEDBEF71
:1013B00009F0DDEF09F0DEEF09F0018010A0E3EFA6
:1013C00009F0E5EF09F0E9EF09F0D8801036EBEF0E
:1013D00009F0D89010360F50D8B4F1EF09F0F3EFC0
:1013E00009F0F4EF09F00F0603AEF9EF09F0FBEF97
:1013F00009F0D1EF09F0000E0E6E10AE02EF0AF008
:1014000004EF0AF01CEF0AF010C009F07F0E091675
:10141000D8B40DEF0AF00FEF0AF013EF0AF0010E47
:101420000E6E1CEF0AF001A018EF0AF01AEF0AF096
:101430001CEF0AF00FEF0AF00E50D8B422EF0AF0BA
:1014400024EF0AF04FEF0AF0010E0126000E0222EF
:101450000322042204A02FEF0AF031EF0AF04FEF2D
:101460000AF001C009F002C00AF003C00BF004C08A
:101470000CF00C340C320B320A32093209C001F084
:101480000AC002F00BC003F00CC004F00F28D8B45F
:101490004CEF0AF04EEF0AF04FEF0AF00F2A0F2838
:1014A000D8B455EF0AF057EF0AF05FEF0AF00F508B
:1014B000D8A45DEF0AF05FEF0AF071EF0AF0000EBA
:1014C000016E000E026E000E036E000E046E0F50D1
:1014D000D8A46DEF0AF06FEF0AF071EF0AF0000E7A
:1014E0000D6E0FA076EF0AF078EF0AF07BEF0AF0AE
:1014F000038E7CEF0AF0039ED8900F30046E0DAE81
:1015000084EF0AF086EF0AF087EF0AF0048E01C03C
:1015100001F002C002F003C003F004C004F01200A6
:101520000450800B0D6E04500424136E03AE9BEF29
:101530000AF09DEF0AF09EEF0AF013801350D8B422
:10154000A4EF0AF0A6EF0AF0B9EF0AF01328D8A426
:10155000ACEF0AF0AEEF0AF0B6EF0AF0000E016E43
:10156000000E026E000E036E000E046E038EC1EFBD
:101570000AF0000E016E000E026E000E036E000EE9
:10158000046E0850800B0D1A08500824126E07AE26
:10159000CCEF0AF0CEEF0AF0CFEF0AF01280125033
:1015A000D8B4D5EF0AF0D7EF0AF0EAEF0AF0122824
:1015B000D8A4DDEF0AF0DFEF0AF0E7EF0AF0000E43
:1015C000056E000E066E000E076E000E086E078E8A
:1015D000F2EF0AF0000E056E000E066E000E076EAA
:1015E000000E086E1250D8B4F8EF0AF0FAEF0AF0C5
:1015F00002EF0BF01350D8A400EF0BF002EF0BF04A
:101600000CEF0BF0000E016E000E026E000E036E6A
:10161000000E046EA4EF0CF007500102F3CF18F097
:10162000F4CF19F018500E6E0F6A106A116A195033
:10163000146E156A166A176A06500202F3CF18F084
:10164000F4CF19F018500E26000E0F22102211228E
:1016500019501426000E15221622172205500302D7
:10166000F3CF18F0F4CF19F018500E26000E0F2209
:101670001022112219501426000E152216221722AC
:1016800010C011F00FC010F00EC00FF00E6A055020
:101690000202F3CF18F0F4CF19F018500E261950AB
:1016A0000F22000E1022000E112206500102F3CF6D
:1016B00018F0F4CF19F018500E2619500F22000E12
:1016C0001022000E112210C011F00FC010F00EC039
:1016D0000FF00E6A05500102F3CF18F0F4CF19F0A5
:1016E00018500E2619500F22000E1022000E112243
:1016F00007500202F3CF18F0F4CF19F01850142657
:1017000019501522000E1622000E17220650030251
:10171000F3CF18F0F4CF19F01850142619501522F1
:10172000000E1622000E172207500302F3CF18F006
:10173000F4CF19F01850096E19500A6E0B6A0C6A32
:101740000BC00CF00AC00BF009C00AF0096A09507E
:1017500014260A5015220B5016220C5017220EC0C8
:1017600009F00FC00AF010C00BF011C00CF0190EF8
:10177000BFEF0BF0D8900C320B320A320932E82E50
:10178000BAEF0BF0095014260A5015220B501622FE
:101790000C50172210C011F00FC010F00EC00FF047
:1017A0000E6A125013C009F00A6A0926000E0A22B6
:1017B000820E0924186EFF0E0A20196EF5EF0BF049
:1017C000D890143615361636173611AEEAEF0BF0F0
:1017D000ECEF0BF0EDEF0BF01480D8900E360F36D7
:1017E000103611361806D8A0190616AEFAEF0BF00F
:1017F000FCEF0BF0E0EF0BF0000E126E11AE03EFFA
:101800000CF005EF0CF029EF0CF0FF0E0E14096E32
:10181000FF0E0F140A6EFF0E10140B6E7F0E1114C4
:101820000C6E09500A100B100C10D8B41AEF0CF003
:101830001CEF0CF020EF0CF0010E126E29EF0CF0F3
:1018400014A025EF0CF027EF0CF029EF0CF01CEFA3
:101850000CF01250D8B42FEF0CF031EF0CF055EF24
:101860000CF0010E1426000E15221622172217A0C6
:101870003CEF0CF03EEF0CF055EF0CF014C009F00B
:1018800015C00AF016C00BF017C00CF00C340C3267
:101890000B320A32093209C014F00AC015F00BC02D
:1018A00016F00CC017F0184A192A19BE60EF0CF098
:1018B000195008E11828D8A060EF0CF062EF0CF086
:1018C0006CEF0CF0000E146E000E156E800E166E8E
:1018D0007F0E176E9AEF0CF019BE79EF0CF01950CD
:1018E00006E11804D8B077EF0CF079EF0CF085EF33
:1018F0000CF0000E146E000E156E000E166E000E2B
:10190000176E000E0D6E9AEF0CF018C013F0FF0E5C
:101910001416FF0E15167F0E1616000E171613A0BE
:1019200094EF0CF096EF0CF097EF0CF0168ED89029
:101930001330176E0D50171214C001F015C002F0CD
:1019400016C003F017C004F01200096E0950D8B495
:10195000ACEF0CF0AEEF0CF0D0EF0CF004BEB5EF36
:101960000CF0B3EF0CF0D0EF0CF001C005F002C0AA
:1019700006F003C007F004C008F0051E061E071E8F
:10198000081E052A000E06220722082205C00BF0B9
:1019900006C00CF007C00DF008C00EF0D8EF0CF038
:1019A00001C00BF002C00CF003C00DF004C00EF03B
:1019B0000150021003100410D8A4E1EF0CF0E3EF83
:1019C0000CF0EDEF0CF0000E016E000E026E000E3A
:1019D000036E000E046E7EEF0DF0960E0A6EF7EFAA
:1019E0000CF00A2AD8900E320D320C320B32000E57
:1019F0000B14056E000E0C14066E000E0D14076E0F
:101A0000FE0E0E14086E0550061007100810D8A41C
:101A10000CEF0DF00EEF0DF0F1EF0CF01CEF0DF0F0
:101A20000A2A010E0B26000E0C220D220E22D8903F
:101A30000E320D320C320B32000E0B14056E000EFE
:101A40000C14066E000E0D14076EFF0E0E14086EB9
:101A50000550061007100810D8A431EF0DF033EF31
:101A60000DF010EF0DF03BEF0DF00A06D8900B369D
:101A70000C360D360E360DBE40EF0DF042EF0DF078
:101A80004AEF0DF0020E0A6048EF0DF04AEF0DF03C
:101A900035EF0DF00AB04FEF0DF051EF0DF052EFB2
:101AA0000DF00D9ED8900A320AC005F0066A076A4A
:101AB000086A05C008F0076A066A056A05500B1235
:101AC00006500C1207500D1208500E120950D8B4CF
:101AD0006CEF0DF06EEF0DF076EF0DF004BE75EFCC
:101AE0000DF073EF0DF076EF0DF00E8E0BC001F0E0
:101AF0000CC002F00DC003F00EC004F012001FBEB7
:101B000084EF0DF087EF0DF0010E88EF0DF0000E61
:101B1000286E2850D8B48FEF0DF091EF0DF095EFAF
:101B20000DF01E6C1F1ED8B01F2A50BE9CEF0DF08A
:101B30009AEF0DF0A2EF0DF0000E236E010E226E53
:101B4000A6EF0DF04FC022F050C023F04DC024F09E
:101B50004EC025F02850D8B4B0EF0DF0B2EF0DF024
:101B6000C9EF0DF02406D8A025062850D8A4BBEF55
:101B70000DF0BDEF0DF0C3EF0DF0000E216E2B0E3A
:101B8000206EC7EF0DF0000E216E2D0E206E20C0CE
:101B900028F0000E276E1F0E266E000E0001B56F96
:101BA00002EF0EF02606D8A02706960E2624D96E40
:101BB000000E2720DA6E1EC001F01FC002F0000EDA
:101BC000046E0A0E036E27EC10F001C007F002C08D
:101BD00008F078EC12F00750300FDF6E2206D8A024
:101BE00023062406D8A025061EC001F01FC002F05F
:101BF000000E046E0A0E036EC5EC0FF001C01EF05D
:101C000002C01FF027BE0DEF0EF0275008E126049A
:101C1000D8A00DEF0EF00FEF0EF025EF0EF01E50D6
:101C20001F10D8A416EF0EF018EF0EF0D2EF0DF043
:101C300023BE25EF0EF0235006E12204D8B023EF97
:101C40000EF025EF0EF0D2EF0DF02850D8B42BEFA8
:101C50000EF02DEF0EF038EF0EF02606D8A0270676
:101C6000960E2624D96E000E2720DA6E28C0DFFFDC
:101C70001CC011F01DC012F0960E2624136E000E2B
:101C80002720146E24C015F025C016F02FEC11F09B
:101C900012002BC0D9FF2CC0DAFFDECFF6FFDDCF5C
:101CA000F7FF000EF86E0800F550250AD8A45BEF88
:101CB0000EF05DEF0EF0CBEF0EF02BC0D9FF2CC075
:101CC000DAFFDE2A000EDD22000E4E6E000E4D6E93
:101CD0004DC055F04F6850682BC0D9FF2CC0DAFFBB
:101CE000DECF35F0DDCF36F035C0F6FF36C0F7FF7A
:101CF000000EF86E0800F550640AD8B482EF0EF0BA
:101D000084EF0EF094EF0EF035C0F6FF36C0F7FF0B
:101D1000000EF86E0800F550690AD8A492EF0EF094
:101D200094EF0EF0C2EF0EF02DC0D9FF2EC0DAFFF7
:101D3000DFCF2FF0020EDE26DFCF30F0000EDD22E7
:101D40002FC0D9FF30C0DAFFDECF31F0DDCF32F067
:101D5000010E35242F6E000E3620306E2BC0D9FFB9
:101D60002CC0DAFF2FC0DEFF30C0DDFF29C01CF021
:101D70002AC01DF031C01EF032C01FF07FEC0DF004
:101D8000E1EF0EF02BC0D9FF2CC0DAFFDE2A000EE7
:101D9000DD22E1EF0EF02BC0D9FF2CC0DAFFDECF41
:101DA000F6FFDDCFF7FF000EF86E0800F550016E6C
:101DB000026A29C003F02AC004F060EC0FF0C2EF01
:101DC0000EF01200B3EC12F0C0EC11F0E8EC11F0E0
:101DD0000EEC12F039EC13F002EC13F0F0EC12F010
:101DE000000ED7EC10F08598DF0E1FEC13F05A6E42
:101DF00085888598DD0E1FEC13F05A6E020E486E32
:101E0000450E476EAA0EE82EFED7472EFCD7482E69
:101E1000FAD78588C8EC12F00009D8B412EF0FF099
:101E200014EF0FF026EF0FF0440E3F6E100E406ED1
:101E3000000E426EDF0E416EDDEC12F0210E476E99
:101E4000760EE82EFED7472EFCD700D0000E116E7E
:101E5000000E126EE80E136E420E146E595053248B
:101E6000476E000E5420486E47C001F048C002F093
:101E7000036A046A000EA5EC0CF001C015F002C064
:101E800016F003C017F004C018F033EC12F011C0C4
:101E900049F012C04AF013C04BF014C04CF098EC5B
:101EA00012F0020E486E450E476EAA0EE82EFED7BF
:101EB000472EFCD7482EFAD7F3EF0EF000EF00F0D4
:101EC00003500410D8B467EF0FF069EF0FF072EF12
:101ED0000FF003500410D8A470EF0FF072EF0FF062
:101EE00077EF0FF0015082EC13F0C4EF0FF020EE0B
:101EF0000AF00350D9260450DA22DE50DE10D8B49E
:101F000084EF0FF086EF0FF0A1EF0FF020EE0AF054
:101F10000350D9260450DA2210EE03F00350E126D4
:101F20000450E222DE50E65CE650800A096EDE5084
:101F3000800A0958D8B09FEF0FF0A1EF0FF0C4EF5F
:101F40000FF020EE03F00350D9260450DA22DECF42
:101F500005F0DDCF06F003C0D9FF04C0DAFFDECF05
:101F600007F0DDCF08F005500724D96E0650082091
:101F7000DA6E01C0DFFF20EE03F00350D9260450D3
:101F8000DA22DE2A000EDD221200000E066E04BEEA
:101F9000CEEF0FF0CCEF0FF0D4EF0FF0036C041E78
:101FA000D8B0042A010E066E02BEDBEF0FF0D9EFA7
:101FB0000FF0E1EF0FF0016C021ED8B0022A010E03
:101FC000061A000E086E000E076E03500410D8B4F7
:101FD000ECEF0FF0EEEF0FF016EF10F0010E056EC4
:101FE000F6EF0FF0D89003360436052A04AEFBEF67
:101FF0000FF0FDEF0FF0F2EF0FF0D8900736083634
:102000000350015C04500258D8A009EF10F00BEF08
:1020100010F010EF10F00350015E0450025A0780D8
:10202000D89004320332052EFDEF0FF00650D8B4DD
:102030001CEF10F01EEF10F022EF10F0076C081EDE
:10204000D8B0082A07C001F008C002F01200000E44
:10205000066E02BE30EF10F02EEF10F036EF10F0EB
:10206000016C021ED8B0022A010E066E04BE3DEFBE
:1020700010F03BEF10F041EF10F0036C041ED8B0ED
:10208000042A03500410D8B448EF10F04AEF10F0BF
:102090006EEF10F0010E056E52EF10F0D89003367F
:1020A0000436052A04AE57EF10F059EF10F04EEF4A
:1020B00010F00350015C04500258D8A062EF10F0F9
:1020C00064EF10F068EF10F00350015E0450025A04
:1020D000D89004320332052E59EF10F00650D8B4D0
:1020E00074EF10F076EF10F07AEF10F0016C021E32
:1020F000D8B0022A01C001F002C002F01200000EA6
:10210000866E100E856E000E826E400E836E400E3F
:10211000846E070E8B6E8768FD0E886EB50E896E15
:10212000EE0E8A6EEC0E0F01216F250E1C6FB90E9C
:10213000146F070E296FFD0E0C6F000E206F000E3E
:10214000286F000E136F000E0B6F000E1B6F000E3A
:10215000276F000E0A6F000E126F000E1A6F000E2E
:102160001F6F0969116919691E69070E266F0869D1
:10217000106918691D690F0E256F0A0E0E018B6F0D
:10218000130EB26F170EB06F110EEB6F0F0EF56FCF
:10219000120EEC6F100EF36F0B0EFA6F090EF86F44
:1021A000190E886F140EB36F090E8A6F1200026E3B
:1021B00095BADDEF10F0DFEF10F02EEF11F00250C6
:1021C000040D010EF326000EF422310EF324F66EF8
:1021D000100EF420F76EF86A000EF8220800F5CF12
:1021E00094FF0250040D310EF324F66E100EF4200D
:1021F000F76EF86A000EF8220800F5CF95FF000E82
:10220000966E0250040D020EF326000EF422310EDB
:10221000F324F66E100EF420F76EF86A000EF82222
:102220000800F5CF92FF0250040D030EF326000EB6
:10223000F422310EF324F66E100EF420F76EF86AD5
:10224000000EF8220800F5CF01F0014601460146D4
:1022500089500118F70B0118896E958A120016BE75
:1022600034EF11F036EF11F03CEF11F015C01AF019
:1022700016C01BF040EF11F0000E1B6E000E1A6E20
:10228000000E196E000E186E52EF11F0000E026E65
:10229000200E016E11C003F012C004F060EC0FF0CC
:1022A000184A192A1A50185C1950800A176E1B50C8
:1022B000800A1758D8A05FEF11F061EF11F046EFD8
:1022C00011F013C00AF014C00BF011C00CF012C0D2
:1022D0000DF056EC12F012009E0EF66E260EF76E02
:1022E000000EF86E00EEC8F010EE10F00900F5CF09
:1022F000EEFFE550E150FAE1020EF66E270EF76EA2
:10230000000EF86E0900F5CF5DF00900F5CF5EF024
:1023100000EE60F0560EEE6AE806FDE100EE49F0D0
:10232000140EEE6AE806FDE10001E2EF0EF039C09E
:102330003DF03AC03EF0ABEF11F037C029F038C0A5
:102340002AF03D0E2B6E000E2C6E3BC02DF03CC0D3
:102350002EF049EC0EF03DC0F6FF3EC0F7FF000E38
:10236000F86E0800F5500009D8A4B9EF11F0BBEFE2
:1023700011F09DEF11F0000E386E000E376E120056
:10238000000E656E000E666E000E676E000E686EC3
:10239000000E636E000E646E000E616E000E0F0183
:1023A0005A6F000E586F000E596F000E546F100ECA
:1023B000556F000E566F000E606E000E536F000ECC
:1023C000516F000E526F840E5B6F000E576F12003C
:1023D000080E0E019A6F900E986F240E996F190EC9
:1023E000966F000E976F000E016E000E026E000ECB
:1023F000036E5EEC13F0000E016E000E026E000E16
:10240000036E57EC13F0000E016E000E026E000E0C
:10241000036E65EC13F0000E5B6E1200080E9E6EEC
:10242000900E9C6E240E9D6E190E9A6E000E9B6E81
:10243000000E016E000E026E000E036E73EC13F0C0
:10244000000E016E000E026E000E036E6CEC13F0B7
:10245000000E016E000E026E000E036E7AEC13F099
:10246000000E5C6E1200000E151A000E161A000EF9
:10247000171A800E181A11C001F012C002F013C012
:1024800003F014C004F015C005F016C006F017C024
:1024900007F018C008F030EC08F001C011F002C0DD
:1024A00012F003C013F004C014F01200000E106EFE
:1024B000000E0F6E67EF12F00EC001F0026A0CC042
:1024C00003F00DC004F060EC0FF00F4A102A0F501B
:1024D0000A24D96E10500B20DA6EDF500E6E0E50AB
:1024E000D8A475EF12F077EF12F05CEF12F0120043
:1024F00008BE85EF12F0085006E10704D8B083EF5C
:1025000012F085EF12F093EF12F007C009F008C047
:102510000AF0091E0A1E094A0A2A09C007F00AC061
:1025200008F097EF12F007C007F008C008F012009B
:1025300049C001F04AC002F04BC003F04CC004F0A7
:10254000CD0E056ECC0E066ECC0E076E3D0E086EDF
:1025500090EC0AF001C092F002C093F003C094F036
:1025600004C095F0120011EC13F0F0EC12F044EC02
:1025700013F07FEC10F02DEC13F0C0EC11F039ECFF
:1025800013F002EC13F00EEC12F0E8EC11F0120074
:10259000000E016E0E01C8ADD0EF12F0D2EF12F0B6
:1025A000DBEF12F099ABD7EF12F0D9EF12F0DBEFBF
:1025B00012F0010E016E01501200410E456E000E28
:1025C000466E000E376E000E386E3FC039F040C0C8
:1025D0003AF0450E3B6E000E3C6E97EC11F0120087
:1025E000130E0E01B26F140EB36F0F0EF56F100EB7
:1025F000F36FC00E946E000E956E010E926E89966A
:10260000959A1200030EBE6E000EBD6E000EBF6ED8
:10261000F90EBB6E000EBA6E0E01C993A30EBC6E0E
:102620001200000E0E01DC6F000EDD6F000EDE6F7B
:10263000000EDF6F000EE06F000EE16F1200016E02
:1026400001C091FF0E01C8A128EF13F02AEF13F08B
:1026500022EF13F0C89191501200620E0E01D36F59
:10266000000ED56F000ED76F020ED96F000ED86F17
:102670001200800EA46E7C0EA36EC00EA26EAD5032
:10268000CF0B1009AD6E1200000E0E01906F080EF8
:10269000916F000E926F030E8E6F919B12006F125E
:1026A000833A0AD7233CCDCCCC3D0000E84201C0A0
:1026B000B9F002C0BAF003C0BBF0120001C0BCF018
:1026C00002C0BDF003C0BEF0120001C0B6F002C0EF
:1026D000B7F003C0B8F0120001C0C2F002C0C3F0EE
:1026E00003C0C4F0120001C0C5F002C0C6F003C0B0
:1026F000C7F0120001C0BFF002C0C0F003C0C1F0BB
:062700001200DDDF1200F3
:020000040020DA
:10000000FFFFFFFFFFFFFFFFFFFFFFFFFFFFFFFF00
:10001000FFFFFFFFFFFFFFFFFFFFFFFFFFFFFFFFF0
:10002000FFFFFFFFFFFFFFFFFFFFFFFFFFFFFFFFE0
:10003000FFFFFFFFFFFFFFFFFFFFFFFFFFFFFFFFD0
:10004000FFFFFFFFFFFFFFFFFFFFFFFFFFFFFFFFC0
:10005000FFFFFFFFFFFFFFFFFFFFFFFFFFFFFFFFB0
:10006000FFFFFFFFFFFFFFFFFFFFFFFFFFFFFFFFA0
:10007000FFFFFFFFFFFFFFFFFFFFFFFFFFFFFFFF90
:10008000FFFFFFFFFFFFFFFFFFFFFFFFFFFFFFFF80
:10009000FFFFFFFFFFFFFFFFFFFFFFFFFFFFFFFF70
:1000A000FFFFFFFFFFFFFFFFFFFFFFFFFFFFFFFF60
:1000B000FFFFFFFFFFFFFFFFFFFFFFFFFFFFFFFF50
:1000C000FFFFFFFFFFFFFFFFFFFFFFFFFFFFFFFF40
:1000D000FFFFFFFFFFFFFFFFFFFFFFFFFFFFFFFF30
:1000E000FFFFFFFFFFFFFFFFFFFFFFFFFFFFFFFF20
:1000F000FFFFFFFFFFFFFFFFFFFFFFFFFFFFFFFF10
:020000040030CA
:0C000000ECFFFFFF9FFFFFDFFFFFFFFF93
:00000001FF
